:100000000C9484000C94AF000C94AF000C94AF00DF
:100010000C94AF000C94AF000C94AF000C94AF00A4
:100020000C94AF000C94AF000C94AF000C94AF0094
:100030000C94AF000C94AF000C94AF000C94AF0084
:100040000C94AF000C94AF000C9415020C94AF000C
:100050000C94AF000C94AF000C94AF000C94AF0064
:100060000C94AF000C94AF000C94AF000C94AF0054
:100070000C94AF000C94AF000C94AF000C94AF0044
:100080000C94AF000C94AF000C94AF000000210062
:10009000240027002A0000002200250028002B0051
:1000A00000002000230026002900040403030303AA
:1000B0000303030402020202010101010101010123
:1000C00004020202020404030102010204081020D7
:1000D0004040102040800102040810204080800130
:1000E0000208042010800000000000000000000052
:1000F0000000000000000000000000000000000000
:1001000000030400F300400111241FBECFEFD0E430
:10011000DEBFCDBF11E0A0E0B1E0E8E7FBE000E02A
:100120000BBF02C007900D92A030B107D9F71BBEDC
:1001300011E0A0E0B1E001C01D92A933B107E1F7E1
:1001400011E0C8E0D1E004C02297FE010E94B6058C
:10015000C430D107C9F70E942C040C94BA050C9442
:1001600000000895EF92FF920F931F93FC01162F4A
:10017000F42EE22E0083118280E090E0A0E0B0E057
:1001800082839383A483B58386839783A087B18773
:100190008DEC9CECACECBDE382879387A487B5879C
:1001A00066877787408B518B228B338B862F61E05C
:1001B0000E947C038F2D61E00E947C038E2D61E004
:1001C0000E947C03812F60E00E94F9038F2D60E084
:1001D0000E94F9038E2D60E00E94F9031F910F9198
:1001E000FF90EF9008950F9380E090E0A8ECB2ECC0
:1001F0008093280190932901A0932A01B0932B01A9
:1002000080E091E06BE170E047E150E028E130E010
:1002100001E00E94B20084E191E06CE170E049E10C
:1002200050E02AE130E00E94B2000F910895EF9271
:10023000FF920F931F9380E0E82E81E0F82EC70114
:1002400040E050E068E472EC0E94650104E111E0D6
:10025000C80140E050E068E472E40E94650168E88B
:1002600073E180E090E00E945D02C7010E944D01B1
:10027000C8010E944D011F910F91FF90EF900895CA
:1002800080E090E0A8ECB2EC80932C0190932D01DB
:10029000A0932E01B0932F0108950F931F938C010B
:1002A000FC01808961E00E94F903F801828961E024
:1002B0000E94F903F801868561E00E94F90381E05C
:1002C000F80181831F910F910895AF92BF92CF9251
:1002D000DF92EF92FF920F931F93CF93DF93EC0186
:1002E000D42EC52EB62EA72EE0902C01F0902D0115
:1002F00000912E0110912F01642F752F8B2D9A2DB7
:10030000A80197010E943B0487FD1DC06D2D7C2D27
:100310008B2D9A2D20E030E048EC52E40E944D05F0
:1003200018165CF40F2EF0E0EF2EF0E0FF2EF8EC44
:100330000F2FF2E41F2FF02D06C08D2D9C2DAB2D1D
:10034000BA2D7C018D018A819B81AC81BD818E8318
:100350009F83A887B987EA82FB820C831D838881EB
:10036000882321F417FB109517F91095C801B701E0
:1003700020E030E048EC52E40E943F0420E030E00E
:100380004FE753E40E9451055B016C01EA84FB8452
:100390000C851D85A80197010E944D0518165CF477
:1003A000888961E00E94F9038A8960E00E94F9036C
:1003B000C601B50114C0A80197015058C601B50186
:1003C0000E943B048823A4F4888960E00E94F9031A
:1003D0008A8961E00E94F903C601B50190580E9424
:1003E000A7049B01AC018E85B9010E94FE0211C0D9
:1003F0008E8560E070E00E94FE028E8560E00E94C3
:10040000F903888960E00E94F9038A8960E00E940C
:10041000F9031982DF91CF911F910F91FF90EF9017
:10042000DF90CF90BF90AF9008951F920F920FB6BC
:100430000F9211242F933F938F939F93AF93BF936A
:100440008091340190913501A0913601B09137012E
:10045000309138010196A11DB11D232F2D5F2D373D
:1004600020F02D570196A11DB11D209338018093D6
:10047000340190933501A0933601B09337018091F8
:10048000300190913101A0913201B0913301019678
:10049000A11DB11D8093300190933101A0933201D1
:1004A000B0933301BF91AF919F918F913F912F9165
:1004B0000F900FBE0F901F9018959B01AC017FB756
:1004C000F8948091300190913101A0913201B09166
:1004D000330166B5A89B05C06F3F19F00196A11DB9
:1004E000B11D7FBFBA2FA92F982F8827860F911D86
:1004F000A11DB11D62E0880F991FAA1FBB1F6A953D
:10050000D1F7BC012DC0FFB7F894809130019091D4
:100510003101A0913201B0913301E6B5A89B05C02D
:10052000EF3F19F00196A11DB11DFFBFBA2FA92FF2
:10053000982F88278E0F911DA11DB11DE2E0880F15
:10054000991FAA1FBB1FEA95D1F7861B970B885EE0
:100550009340C8F2215030404040504068517C4F99
:10056000211531054105510571F60895789484B53A
:10057000826084BD84B5816084BD85B5826085BD9F
:1005800085B5816085BDEEE6F0E080818160808385
:10059000E1E8F0E010828081826080838081816068
:1005A0008083E0E8F0E0808181608083E1EBF0E02F
:1005B000808184608083E0EBF0E0808181608083D3
:1005C000E1E9F0E0808182608083808181608083C6
:1005D000E0E9F0E0808181608083EAE7F0E08081FB
:1005E0008460808380818260808380818160808359
:1005F0008081806880831092C10008951F93CF93FB
:10060000DF93182FEB0161E00E947C03209709F42F
:1006100068C0CF3FD10509F467C0E12FF0E0EA518F
:10062000FF4F8491843061F1853040F48230C9F00D
:100630008330E0F4813009F051C00EC0873091F171
:10064000883020F4863009F049C024C0883091F108
:10065000893009F043C038C084B5806884BDC7BD07
:1006600047C084B5806284BDC8BD42C0809180000F
:10067000806880938000D0938900C093880038C040
:1006800080918000806280938000D0938B00C09323
:100690008A002EC08091B00080688093B000C09323
:1006A000B30026C08091B00080628093B000C093F8
:1006B000B4001EC080919000806880939000D09319
:1006C0009900C093980014C080919000806280933C
:1006D0009000D0939B00C0939A000AC0C038D10507
:1006E0001CF4812F60E002C0812F61E00E94F903B9
:1006F000DF91CF911F910895CF93DF93482F50E062
:10070000CA0188539F4FFC01349146555F4FFA014F
:100710008491882369F190E0880F991FFC01E457C8
:10072000FF4FA591B491FC01EA56FF4FC591D491BA
:10073000662351F42FB7F8948C91932F90958923C9
:100740008C93888189230BC0623061F42FB7F894B1
:100750008C91932F909589238C938881832B888308
:100760002FBF06C09FB7F8948C91832B8C939FBFAB
:10077000DF91CF9108958430C9F0853038F482300C
:10078000F1F0833078F4813099F516C08730F9F0B4
:10079000883018F4863061F516C08830F1F0893061
:1007A00039F521C0809180008F7703C0809180004F
:1007B0008F7D80938000089584B58F7702C084B5C3
:1007C0008F7D84BD08958091B0008F7703C08091A4
:1007D000B0008F7D8093B0000895809190008F7756
:1007E000809390000895809190008F7D8093900079
:1007F0000895FF920F931F93F62E482F50E0CA01E1
:100800008A519F4FFC012491CA0188539F4FFC01DC
:10081000149146555F4FFA0104910023C9F0222339
:1008200019F0822F0E94BB03E02FF0E0EE0FFF1FB4
:10083000EA56FF4FA591B4919FB7F894FF2021F499
:100840008C911095812302C08C91812B8C939FBF3A
:100850001F910F91FF900895CF93DF930E94B602EE
:100860000E941701C0E0D0E00E94B1002097E1F3A0
:100870000E940000F9CF9CD008F481E008950CD0CC
:10088000D2C0CAD040F0C1D030F021F45F3F19F09F
:10089000B3C05111FCC0B6C0D7D098F39923C9F3A7
:1008A0005523B1F3951B550BBB27AA276217730776
:1008B000840738F09F5F5F4F220F331F441FAA1F2A
:1008C000A9F333D00E2E3AF0E0E830D091505040EA
:1008D000E695001CCAF729D0FE2F27D0660F771F98
:1008E000881FBB1F261737074807AB07B0E809F07A
:1008F000BB0B802DBF01FF2793585F4F2AF09E3F0F
:10090000510568F079C0C3C05F3FECF3983EDCF35B
:10091000869577956795B795F7959F5FC9F7880F87
:10092000911D9695879597F90895E1E0660F771FD9
:10093000881FBB1F621773078407BA0720F0621B6A
:10094000730B840BBA0BEE1F88F7E095089504D063
:100950006894B1119CC008957FD088F09F5790F0A3
:10096000B92F9927B751A0F0D1F0660F771F881FD4
:10097000991F1AF0BA95C9F712C0B13081F086D02C
:10098000B1E0089583C0672F782F8827B85F39F0CA
:10099000B93FCCF3869577956795B395D9F73EF433
:1009A00090958095709561957F4F8F4F9F4F0895DB
:1009B000990F0008550FAA0BE0E8FEEF1616170670
:1009C000E807F907C0F012161306E407F50798F0D8
:1009D000621B730B840B950B39F40A2661F0232BF1
:1009E000242B252B21F408950A2609F4A140A6956D
:1009F0008FEF811D811D089597F99F6780E870E052
:100A000060E008959FEF80EC089500240A94161684
:100A1000170618060906089500240A9412161306EC
:100A2000140605060895092E0394000C11F488237A
:100A300052F0BB0F40F4BF2B11F460FF04C06F5F96
:100A40007F4F8F4F9F4F089557FD9058440F551F6C
:100A500059F05F3F71F04795880F97FB991F61F040
:100A60009F3F79F087950895121613061406551FB7
:100A7000F2CF4695F1DF08C0161617061806991F23
:100A8000F1CF86957105610508940895E894BB2718
:100A900066277727CB0197F908958ADF08F48FEF4F
:100AA00008950BD0C0CFB1DF28F0B6DF18F0952342
:100AB00009F0A2CFA7CF1124EACFC6DFA0F3959FFC
:100AC000D1F3950F50E0551F629FF001729FBB2735
:100AD000F00DB11D639FAA27F00DB11DAA1F649FE1
:100AE0006627B00DA11D661F829F2227B00DA11D94
:100AF000621F739FB00DA11D621F839FA00D611D1A
:100B0000221F749F3327A00D611D231F849F600D3A
:100B1000211D822F762F6A2F11249F5750408AF073
:100B2000E1F088234AF0EE0FFF1FBB1F661F771FFF
:100B3000881F91505040A9F79E3F510570F05CCF3F
:100B4000A6CF5F3FECF3983EDCF3869577956795EB
:100B5000B795F795E7959F5FC1F7FE2B880F911D1D
:100B60009695879597F90895EE0FFF1F0590F491DC
:080B7000E02D0994F894FFCF79
:00000001FF
